23700000         212345678000100                    0082500000000123456 CORRENTISTA BANCOBR.NET       BRADESCO                                12501202410165500000108906250                                                                     
23700011C2041045 212345678000100                    0082500000000123456 CORRENTISTA BANCOBR.NET                                               RUA TESTE BANCOBR.NET         567  COMPL. END.    RIBEIRAO PRETO      12345678SP01                
2370001300002A0000183410052800000000543218 FORNECEDOR A BANCOBR.NET      5637                28042023BRL000000000000000000000000250065                    00000000000000000000000                                          00010     0          
2370001300003B   100012345678900RUA TESTE FORNECEDOR A BANCOBR765  COMPL.FORNEC. ABAIRRO A       SAO PAULO           07654321SP00000000000000000000000000000000000000000000000000000000000000000000000000000000000               000000000000000
23700015         000004000000000000250065000000000000000000000000                                                                                                                                                                               
23700021C2045045 212345678000100                    0082500000000123456 CORRENTISTA BANCOBR.NET                                               RUA TESTE BANCOBR.NET         567  COMPL. END.    RIBEIRAO PRETO      12345678SP01                
23700025         000002000000000000000000000000000000000000000000                                                                                                                                                                               
23799999000000000000002000008000000                                                                                                                                                                                                             